:040000000CEF00F011
:10000800FACF01F0FBCF02F0E9CF03F046ED0AF09A
:040018004EEF0DF0AA
:1010000000E0FC2BFD76FD00008A02D50220030AD9
:101010000D4B77616E746C656E20415053433132D5
:1010200039392073696D706C65206375727665203F
:10103000666F6C6C6F776572202D2D2077697468F0
:10104000206572726F7220636F6465730A0D0020F1
:101050003C72657365743E20003C53544B46554CBE
:101060003E003C57445420544F3E005C3C4C564498
:101070003E003C424F523E003C504F523E0000006A
:10108000030E156E000E176E000E166E000E09ECA4
:1010900009F0060E156E000E176EB90E166E010ED3
:1010A00009EC09F05DEC0BF05DEC0BF05DEC0BF086
:1010B000060E156E000E176E000E166E000E09EC71
:1010C00009F0000E156E000E176E000E166E010E62
:1010D00009EC09F05DEC0BF05DEC0BF05DEC0BF056
:1010E000060E156E000E176E000E166E000E09EC41
:1010F00009F0040E156E000E176E000E166E010E2E
:1011000009EC09F05DEC0BF05DEC0BF05DEC0BF025
:10111000B7D707D000D0D1EC0BF018D0B1EC0CF061
:1011200015D01F501F0B000AD8B4F8D7010AD8B445
:10113000F2D7030AD8B4EFD7060AD8B4ECD70C0A12
:10114000D8B4E9D7180AD8B4E6D700D01200870E71
:1011500018EC0CF013501D5C14501E58D8B003D07E
:10116000166A162A01D0166A163A1F501618EF0B87
:1011700016181F6E8F0E18EC0CF013501D5C1450D7
:101180001E58D8B003D0166A162A01D0166A164621
:10119000164616461F501618F70B16181F6E970E98
:1011A00018EC0CF013501D5C14501E58D8B003D02E
:1011B000166A162A01D0166A164616461F501618C9
:1011C000FB0B16181F6E9F0E18EC0CF013501D5CD5
:1011D00014501E58D8B003D0166A162A01D0166AC9
:1011E00016461F501618FD0B16181F6EA70E18EC8A
:1011F0000CF013501D5C14501E58D8B003D0166A62
:10120000162A01D0166A1F501618FE0B16181F6EEC
:101210001200196E010E1A6E1550020D010EF32404
:10122000F66E100EF420F76EF86A000EF8221650D3
:101230000900F5241B6E17500900F5201C6E1CAE2A
:1012400007D0000E1A6E1B6C1C1ED8B01C2A00D0D2
:101250001CBE0AD0210E1B5C030E1C58D8A004D063
:10126000030E1C6E200E1B6E1950D8A418D01BC084
:101270000FF01CC010F07BEC0BF01A50D8A402D079
:10128000829002D0828000D082B003D0186A182ADF
:1012900001D0186A184684501818FD0B16D01BC0D0
:1012A0000FF01CC010F098EC0BF01A50D8A402D02C
:1012B000829A02D0828A00D082BA03D0186A182A91
:1012C00001D0186A84501818FE0B1818846E00D0CC
:1012D0001200000E146E000E156E000E166E000E3B
:1012E000176E000E186E000E196E000E1A6E000EAC
:1012F0001B6E66EC0DF0780E0F6E100E106EEBECA0
:101300000BF0839083828384838683882DD00400AE
:10131000300E181817E1750E19181A101B10D8A4E2
:1013200011D0000E186E000E196E000E1A6E000E0F
:101330001B6E010E1426000E152216221722839012
:1013400083820CD0980E181809E13A0E19181A1059
:101350001B10D8A403D08380839200D0010E1826DE
:10136000000E19221A221B2217501610151006E122
:101370000A0E145CD8B002D0CAD700D012001F9059
:101380001F921F941F961F98D08EF29EF29C02EC23
:101390000CF06CEC0DF0000E106E100E0F6E3C0E8B
:1013A00085EC0AF075EC0DF0000E836E1DEC0BF071
:1013B00055EC0DF072EC0DF06FEC0DF069EC0DF0EA
:1013C0001BEC0DF00C0E0F6E0A0E106EA70EEEEC5D
:1013D0000AF0829A849082908492060E0DEC0DF0B1
:1013E000C70E3DEC0DF0C70EB5EC0BF0000E106E05
:1013F000000E0F6E98EC0BF0000E106E000E0F6ECC
:101400007BEC0BF0020E1E6E000E1D6E12001FB85C
:1014100003D00F6A0F2A01D00F6A83500F18FE0BFA
:101420000F18836E1FB603D00F6A0F2A01D00F6A00
:101430000F4683500F18FD0B0F18836E1FB403D097
:101440000F6A0F2A01D00F6A0F460F4683500F18FC
:10145000FB0B0F18836E1FB203D00F6A0F2A01D047
:101460000F6A0F460F460F4683500F18F70B0F18E1
:10147000836E1FB003D00F6A0F2A01D00F6A0F3A94
:1014800083500F18EF0B0F18836E12000600EACF7F
:1014900004F0E1CF05F0E2CF06F0D9CF07F0DACFC4
:1014A00008F0F3CF09F0F4CF0AF0F6CF0BF0F7CF46
:1014B0000CF0F8CF0DF0F5CF0EF0A1949268936880
:1014C00094689568030E966E010E206EA094D298D3
:1014D0000EC0F5FF0DC0F8FF0CC0F7FF0BC0F6FF04
:1014E0000AC0F4FF09C0F3FF08C0DAFF07C0D9FF44
:1014F00006C0E2FF05C0E1FF04C0EAFF03C0E9FF48
:1015000002C0FBFF01C0FAFF1100116E000EAC6EAD
:10151000000EAB6E11A002D0AC8800D011A203D097
:10152000AC8CAB8C00D011A402D0AC8E00D011A634
:1015300002D0AB8802D0AB8A00D011B8AC849E98A0
:1015400011AA02D0AB8600D011AC02D09D8A01D086
:101550009D9A9E9A11AE02D09D8801D09D980FC091
:10156000AFFF1050B06EAC8AAB8E949C948EACB82A
:10157000ACBE02D0948C00D01200000E0F6E000E94
:10158000106E000E116E000E126E0400300E0F1859
:1015900011E1750E101811101210D8A40BD0000E06
:1015A0000F6E000E106E000E116E000E126E839004
:1015B00083820CD0980E0F1809E13A0E1018111002
:1015C0001210D8A403D08380839200D0010E0F267E
:1015D000000E102211221222D8D71200136E000E14
:1015E000C26E000EC06ED8900F303C0BC26E0FC0A2
:1015F00011F0113AF00E1116300E111610500F0B9B
:101600001110C16E13C011F0D8901136D890113658
:10161000380E111613C012F0123A0F0E1216070EE2
:1016200012161350800B12101110C06E0FAE03D0A3
:101630009E9C9D8CF28CC28012009EEC0CF00009E6
:10164000D8B403D069EC09F018D027EC0DF00009EC
:10165000D8B403D0C2EC0CF010D08BEC0CF0000925
:10166000D8B403D0F1EC0CF008D0FCAE03D0E2EC1F
:101670000CF003D0FFEC0CF000D01200BFEC09F02E
:101680000F0E0F6E100E106EEBEC0BF00400010E3F
:101690001E6EF40E1D6E00D0A7EC08F007EC0AF0E9
:1016A00040EC08F0040063EC0DF00009D8B4F4D766
:1016B000D2EC0CF0F1D70CEF00F0000E116E000E22
:1016C000106E000E116E000E106E11BE08D011507B
:1016D00011E1510E105CD8B00DD001D00BD0820EAC
:1016E0000F6EDE0EE82EFED70F2EFCD7104A112A01
:1016F000ECD700D012000FC011F010C012F0060E8F
:10170000D89011361236E82EFBD711C013F012C054
:1017100014F014C0BBFF13C011F0D8901132D89050
:101720001132300E1116BA50CF0B1110BA6E1200D2
:101730000FC011F010C012F0060ED89011361236FC
:10174000E82EFBD711C013F012C014F014C0BEFF76
:1017500013C011F0D8901132D8901132300E1116FA
:10176000BD50CF0B1110BD6E12000F6E0C0EBA6E75
:10177000050EF66E000EF76E300EF86E08000001D2
:10178000F5A002D0106802D0000E106E1050D8B430
:1017900002D0949201D09396CA940FC0CBFFCA8412
:1017A00012001FA403D052EC0CF014D01FA803D0D9
:1017B00078EC0CF00FD01FA603D03FEC0CF00AD051
:1017C0001FA203D02CEC0CF005D01FA003D065ECB9
:1017D0000CF000D01200110E116E000E126E04D02B
:1017E00013507AEC0DF000D00FC0F6FF10C0F7FFD9
:1017F0000F4A102AF86A0800F5CF13F01350D8A446
:10180000EFD71200D38CD38AD3889B8C000E106E36
:10181000000E0F6E10BE08D0F40E0F5C010E1058B3
:10182000D8B005D001D003D00F4A102AF3D7120048
:10183000156E155032EC0DF078EC0DF000D05CEC2C
:101840000DF00009D8A4FBD746EC0DF00FC013F043
:1018500010C014F000D01200060E156E000E176EA8
:10186000000E166E000E09EC09F0030E156E000E48
:10187000176E000E166E010E09EC09F01200030E31
:10188000156E000E176E000E166E000E09EC09F0B4
:10189000060E156E000E176E000E166E010E09EC88
:1018A00009F01200060E156E000E176E000E166E71
:1018B000000E09EC09F0060E156E000E176E000EF4
:1018C000166E010E09EC09F01200060E156E000EE0
:1018D000176E000E166E000E09EC09F0000E156E64
:1018E000000E176E000E166E010E09EC09F01200C4
:1018F000000E156E000E176E000E166E000E09EC2F
:1019000009F0060E156E000E176E000E166E010E13
:1019100009EC09F01200D0A20ED0D0A40AD0D0A0B9
:1019200006D0D0A602D003D008D0010E06D0000EFB
:1019300004D0000E02D0000E00D01200D0B20ED0A3
:10194000D0A40AD0D0B006D0D0B602D003D008D0F0
:10195000010E06D0000E04D0000E02D0000E00D002
:101960001200030E106E200E0F6E98EC0BF0030E9B
:10197000106E200E0F6E7BEC0BF0849282908490A0
:10198000829A120066EC0DF0720E0F6E100E106E41
:10199000EBEC0BF083808382838483868398BDEC99
:1019A0000AF012006B0E0F6E100E106EEBEC0BF0C7
:1019B00075EC0DF083908382838483968388BDECDD
:1019C0000AF01200FC9E590E0F6E100E106EEBEC1A
:1019D0000BF083908382839483868398BDEC0AF016
:1019E0001200620E0F6E100E106EEBEC0BF0839077
:1019F0008382839483868388BDEC0AF012004F0EA5
:101A00000F6E100E106EEBEC0BF0839083828394BC
:101A100083968398BDEC0AF012000F6E0F50FB0BFB
:101A2000CA6E000ECC6E9E920FAE02D09D8201D087
:101A30009D92CA841200D08ED288A284D29ED28671
:101A4000D284D282D290A194A084F28E1200D0B01F
:101A500006D0D0B202D003D004D0010E02D0000EC6
:101A600000D01200106EC2CF0FF0C30E0F16D89028
:101A700010303C0B0F10C26E12000F6E0C0EBD1218
:101A80009494CA940FC0CBFFCA841200C450116E44
:101A9000C3500F6E11C010F000D01200206A1F6AF0
:101AA0001E6A1D6A00013EEF0BF09490949294948C
:101AB00094969498949A1200C2A202D0010E02D079
:101AC000000E00D01200205000D01200D082D08032
:101AD0001200000E966E1200949C948E1200C00E9E
:101AE000936E1200EF0E926E1200600E956E120051
:061AF000C2821200120088
:020000040020DA
:08000000FFFFFFFFFFFFFFFF00
:020000040030CA
:0E000000FF080306FF0381FF0FC00FE00F4053
:00000001FF
